{
    "abi": [
        {
            "type": "constructor",
            "inputs": [
                {
                    "name": "_propertyToken",
                    "type": "address",
                    "internalType": "address"
                }
            ],
            "stateMutability": "nonpayable"
        },
        {
            "type": "function",
            "name": "bookListing",
            "inputs": [
                {
                    "name": "propertyId",
                    "type": "uint256",
                    "internalType": "uint256"
                },
                {
                    "name": "date",
                    "type": "uint256",
                    "internalType": "uint256"
                }
            ],
            "outputs": [],
            "stateMutability": "payable"
        },
        {
            "type": "function",
            "name": "cancelBooking",
            "inputs": [
                {
                    "name": "propertyId",
                    "type": "uint256",
                    "internalType": "uint256"
                },
                {
                    "name": "date",
                    "type": "uint256",
                    "internalType": "uint256"
                }
            ],
            "outputs": [],
            "stateMutability": "payable"
        },
        {
            "type": "function",
            "name": "createListing",
            "inputs": [
                {
                    "name": "propertyId",
                    "type": "uint256",
                    "internalType": "uint256"
                },
                {
                    "name": "date",
                    "type": "uint256",
                    "internalType": "uint256"
                },
                {
                    "name": "rentPrice",
                    "type": "uint256",
                    "internalType": "uint256"
                },
                {
                    "name": "rentSecurity",
                    "type": "uint256",
                    "internalType": "uint256"
                },
                {
                    "name": "bookingPrice",
                    "type": "uint256",
                    "internalType": "uint256"
                },
                {
                    "name": "bookingSecurity",
                    "type": "uint256",
                    "internalType": "uint256"
                }
            ],
            "outputs": [],
            "stateMutability": "nonpayable"
        },
        {
            "type": "function",
            "name": "getListing",
            "inputs": [
                {
                    "name": "propertyId",
                    "type": "uint256",
                    "internalType": "uint256"
                },
                {
                    "name": "date",
                    "type": "uint256",
                    "internalType": "uint256"
                }
            ],
            "outputs": [
                {
                    "name": "",
                    "type": "tuple",
                    "internalType": "struct Marketplace.Listing",
                    "components": [
                        {
                            "name": "creator",
                            "type": "address",
                            "internalType": "address"
                        },
                        {
                            "name": "propertyId",
                            "type": "uint256",
                            "internalType": "uint256"
                        },
                        {
                            "name": "date",
                            "type": "uint256",
                            "internalType": "uint256"
                        },
                        {
                            "name": "rentPrice",
                            "type": "uint256",
                            "internalType": "uint256"
                        },
                        {
                            "name": "rentSecurity",
                            "type": "uint256",
                            "internalType": "uint256"
                        },
                        {
                            "name": "bookingPrice",
                            "type": "uint256",
                            "internalType": "uint256"
                        },
                        {
                            "name": "bookingSecurity",
                            "type": "uint256",
                            "internalType": "uint256"
                        }
                    ]
                }
            ],
            "stateMutability": "view"
        },
        {
            "type": "function",
            "name": "isListingActive",
            "inputs": [
                {
                    "name": "propertyId",
                    "type": "uint256",
                    "internalType": "uint256"
                },
                {
                    "name": "date",
                    "type": "uint256",
                    "internalType": "uint256"
                }
            ],
            "outputs": [
                {
                    "name": "",
                    "type": "bool",
                    "internalType": "bool"
                }
            ],
            "stateMutability": "view"
        },
        {
            "type": "function",
            "name": "listingBooked",
            "inputs": [
                {
                    "name": "",
                    "type": "uint256",
                    "internalType": "uint256"
                },
                {
                    "name": "",
                    "type": "uint256",
                    "internalType": "uint256"
                }
            ],
            "outputs": [
                {
                    "name": "receiver",
                    "type": "address",
                    "internalType": "address"
                },
                {
                    "name": "booker",
                    "type": "address",
                    "internalType": "address"
                },
                {
                    "name": "isBooked",
                    "type": "bool",
                    "internalType": "bool"
                }
            ],
            "stateMutability": "view"
        },
        {
            "type": "function",
            "name": "listingCompleted",
            "inputs": [
                {
                    "name": "",
                    "type": "uint256",
                    "internalType": "uint256"
                },
                {
                    "name": "",
                    "type": "uint256",
                    "internalType": "uint256"
                }
            ],
            "outputs": [
                {
                    "name": "",
                    "type": "bool",
                    "internalType": "bool"
                }
            ],
            "stateMutability": "view"
        },
        {
            "type": "function",
            "name": "listingSplits",
            "inputs": [
                {
                    "name": "",
                    "type": "uint256",
                    "internalType": "uint256"
                },
                {
                    "name": "",
                    "type": "uint256",
                    "internalType": "uint256"
                },
                {
                    "name": "",
                    "type": "uint256",
                    "internalType": "uint256"
                }
            ],
            "outputs": [
                {
                    "name": "receiver",
                    "type": "address",
                    "internalType": "address"
                },
                {
                    "name": "amount",
                    "type": "uint256",
                    "internalType": "uint256"
                }
            ],
            "stateMutability": "view"
        },
        {
            "type": "function",
            "name": "listings",
            "inputs": [
                {
                    "name": "",
                    "type": "uint256",
                    "internalType": "uint256"
                },
                {
                    "name": "",
                    "type": "uint256",
                    "internalType": "uint256"
                }
            ],
            "outputs": [
                {
                    "name": "creator",
                    "type": "address",
                    "internalType": "address"
                },
                {
                    "name": "propertyId",
                    "type": "uint256",
                    "internalType": "uint256"
                },
                {
                    "name": "date",
                    "type": "uint256",
                    "internalType": "uint256"
                },
                {
                    "name": "rentPrice",
                    "type": "uint256",
                    "internalType": "uint256"
                },
                {
                    "name": "rentSecurity",
                    "type": "uint256",
                    "internalType": "uint256"
                },
                {
                    "name": "bookingPrice",
                    "type": "uint256",
                    "internalType": "uint256"
                },
                {
                    "name": "bookingSecurity",
                    "type": "uint256",
                    "internalType": "uint256"
                }
            ],
            "stateMutability": "view"
        },
        {
            "type": "function",
            "name": "owner",
            "inputs": [],
            "outputs": [
                {
                    "name": "",
                    "type": "address",
                    "internalType": "address"
                }
            ],
            "stateMutability": "view"
        },
        {
            "type": "function",
            "name": "platformFeePPS",
            "inputs": [],
            "outputs": [
                {
                    "name": "",
                    "type": "uint256",
                    "internalType": "uint256"
                }
            ],
            "stateMutability": "view"
        },
        {
            "type": "function",
            "name": "propertyToken",
            "inputs": [],
            "outputs": [
                {
                    "name": "",
                    "type": "address",
                    "internalType": "contract ITokenizedProperty"
                }
            ],
            "stateMutability": "view"
        },
        {
            "type": "function",
            "name": "renounceOwnership",
            "inputs": [],
            "outputs": [],
            "stateMutability": "nonpayable"
        },
        {
            "type": "function",
            "name": "rentListing",
            "inputs": [
                {
                    "name": "propertyId",
                    "type": "uint256",
                    "internalType": "uint256"
                },
                {
                    "name": "date",
                    "type": "uint256",
                    "internalType": "uint256"
                },
                {
                    "name": "updateParams",
                    "type": "tuple",
                    "internalType": "struct Marketplace.UpdateListingParams",
                    "components": [
                        {
                            "name": "rentPrice",
                            "type": "uint256",
                            "internalType": "uint256"
                        },
                        {
                            "name": "rentSecurity",
                            "type": "uint256",
                            "internalType": "uint256"
                        },
                        {
                            "name": "bookingPrice",
                            "type": "uint256",
                            "internalType": "uint256"
                        },
                        {
                            "name": "bookingSecurity",
                            "type": "uint256",
                            "internalType": "uint256"
                        }
                    ]
                }
            ],
            "outputs": [],
            "stateMutability": "payable"
        },
        {
            "type": "function",
            "name": "transferOwnership",
            "inputs": [
                {
                    "name": "newOwner",
                    "type": "address",
                    "internalType": "address"
                }
            ],
            "outputs": [],
            "stateMutability": "nonpayable"
        },
        {
            "type": "function",
            "name": "unlockRoom",
            "inputs": [
                {
                    "name": "propertyId",
                    "type": "uint256",
                    "internalType": "uint256"
                },
                {
                    "name": "date",
                    "type": "uint256",
                    "internalType": "uint256"
                }
            ],
            "outputs": [],
            "stateMutability": "payable"
        },
        {
            "type": "function",
            "name": "updateListing",
            "inputs": [
                {
                    "name": "propertyId",
                    "type": "uint256",
                    "internalType": "uint256"
                },
                {
                    "name": "date",
                    "type": "uint256",
                    "internalType": "uint256"
                },
                {
                    "name": "params",
                    "type": "tuple",
                    "internalType": "struct Marketplace.UpdateListingParams",
                    "components": [
                        {
                            "name": "rentPrice",
                            "type": "uint256",
                            "internalType": "uint256"
                        },
                        {
                            "name": "rentSecurity",
                            "type": "uint256",
                            "internalType": "uint256"
                        },
                        {
                            "name": "bookingPrice",
                            "type": "uint256",
                            "internalType": "uint256"
                        },
                        {
                            "name": "bookingSecurity",
                            "type": "uint256",
                            "internalType": "uint256"
                        }
                    ]
                }
            ],
            "outputs": [],
            "stateMutability": "nonpayable"
        },
        {
            "type": "event",
            "name": "OwnershipTransferred",
            "inputs": [
                {
                    "name": "previousOwner",
                    "type": "address",
                    "indexed": true,
                    "internalType": "address"
                },
                {
                    "name": "newOwner",
                    "type": "address",
                    "indexed": true,
                    "internalType": "address"
                }
            ],
            "anonymous": false
        },
        {
            "type": "event",
            "name": "SettleFee",
            "inputs": [
                {
                    "name": "payer",
                    "type": "address",
                    "indexed": true,
                    "internalType": "address"
                },
                {
                    "name": "propertyId",
                    "type": "uint256",
                    "indexed": true,
                    "internalType": "uint256"
                },
                {
                    "name": "date",
                    "type": "uint256",
                    "indexed": true,
                    "internalType": "uint256"
                },
                {
                    "name": "amount",
                    "type": "uint256",
                    "indexed": false,
                    "internalType": "uint256"
                }
            ],
            "anonymous": false
        },
        {
            "type": "event",
            "name": "SettlePayment",
            "inputs": [
                {
                    "name": "receiver",
                    "type": "address",
                    "indexed": true,
                    "internalType": "address"
                },
                {
                    "name": "propertyId",
                    "type": "uint256",
                    "indexed": true,
                    "internalType": "uint256"
                },
                {
                    "name": "date",
                    "type": "uint256",
                    "indexed": true,
                    "internalType": "uint256"
                },
                {
                    "name": "amount",
                    "type": "uint256",
                    "indexed": false,
                    "internalType": "uint256"
                }
            ],
            "anonymous": false
        },
        {
            "type": "event",
            "name": "SettleSecurity",
            "inputs": [
                {
                    "name": "receiver",
                    "type": "address",
                    "indexed": true,
                    "internalType": "address"
                },
                {
                    "name": "propertyId",
                    "type": "uint256",
                    "indexed": true,
                    "internalType": "uint256"
                },
                {
                    "name": "date",
                    "type": "uint256",
                    "indexed": true,
                    "internalType": "uint256"
                },
                {
                    "name": "amount",
                    "type": "uint256",
                    "indexed": false,
                    "internalType": "uint256"
                }
            ],
            "anonymous": false
        },
        {
            "type": "error",
            "name": "OwnableInvalidOwner",
            "inputs": [
                {
                    "name": "owner",
                    "type": "address",
                    "internalType": "address"
                }
            ]
        },
        {
            "type": "error",
            "name": "OwnableUnauthorizedAccount",
            "inputs": [
                {
                    "name": "account",
                    "type": "address",
                    "internalType": "address"
                }
            ]
        }
    ],
    "bytecode": {
        "object": "0x60a0346100f457601f611bba38819003918201601f19168301916001600160401b038311848410176100f8578084926020946040528339810103126100f457516001600160a01b038116908190036100f45733156100e1575f8054336001600160a01b0319821681178355604051939290916001600160a01b0316907f8be0079c531659141344cd1fd0a4f28419497f9722a3daafe3b4186f6b6457e09080a3620186a0600555608052611aad908161010d8239608051818181610610015281816109d601528181610cab0152818161127c0152818161133e01526117d00152f35b631e4fbdf760e01b5f525f60045260245ffd5b5f80fd5b634e487b7160e01b5f52604160045260245ffdfe60806040526004361015610011575f80fd5b5f5f3560e01c8063273c72e61461144357806332229205146112ab57806343ae2695146112665780634d3084d3146111ee5780634f14ceaa146111bc57806364a50733146111a4578063715018a61461114a5780638da5cb5b146111235780638f41760e146110cc578063adb2fc6a14610fe6578063b0a5010914610c6c578063d1d2281c14610929578063d275fbb21461090b578063edfc8b67146108e7578063f2fde38b14610858578063f3171f7c146105545763f32e9157146100d5575f80fd5b6100de366114d6565b6100ef620151804204821015611635565b81835260046020526040832081845260205260ff60408420541661050f57818352600360205260408320818452602052604083209161016460ff600160405195610138876114ec565b818060a01b038154168752015460018060a01b038116602087015260a01c1615158060408601526115d2565b80845260046020526040842082855260205260408420600160ff19825416179055808452600160205260408420828552602052604084206101fc6040516101aa8161151c565b60018060a01b0383541681526001830154602082015260028301546040820152600383015460608201526004830154608082015260058301549060c0600660a083019584875201549101523414611720565b5181855260026020526040852083865260205260408520805467ffffffffffffffff81116104fb5760208160051b01916102396040519384611554565b81835287526020808820889184015b8383106104c75750505050855b81518110156103ce578484602061026c848661176c565b51015189861561036957908383869594936001978a8a9b8611610361575b918080806102dd9461029f8a6102cc98611780565b9f6102bc620f42406102b48d60055490611677565b04809c611780565b978f92838a9460a01b039261176c565b515116828215610358575bf16116e2565b5f516020611a385f395f51905f526020898060a01b036102fd8a8d61176c565b51511692604051908152a46103268b808080858a8060a01b0382541682821561035857f16116e2565b5f516020611a585f395f51905f526020868060a01b03610346878a61176c565b51511692604051908152a45b01610255565b506108fc6102d7565b94508461028a565b50600193929190506001600160a01b03610383848761176c565b5151165f516020611a385f395f51905f5260206040518d8152a48585838060a01b036103af848761176c565b5151165f516020611a585f395f51905f5260206040518d8152a4610352565b5085949050811561047e5760205f516020611a585f395f51905f52918585610407620f42406103ff60055489611677565b048097611780565b6104268a8080808560018060a01b038a511682821561035857f16116e2565b83516040519182526001600160a01b0316905f516020611a385f395f51905f52908690a4610469878080808860018060a01b0382541682821561035857f16116e2565b516040519384526001600160a01b031692a480f35b9050828260018060a01b038351165f516020611a385f395f51905f526020604051898152a460018060a01b039051165f516020611a585f395f51905f526020604051868152a480f35b600260206001926040516104da81611538565b848060a01b0386541681528486015483820152815201920192019190610248565b634e487b7160e01b87526041600452602487fd5b60405162461bcd60e51b815260206004820152601c60248201527f4c697374696e6720697320616c726561647920636f6d706c65746564000000006044820152606490fd5b5061055e366114d6565b9061057161056c83836119d7565b61169e565b80835260016020526040832082845260205260408320604051906105948261151c565b80546001600160a01b0316825260018101546020830152600281015460408301526003810154606083015260048101546080830152600581015460a0830181905260069091015460c090920191825215610813576105f481513414611720565b6040516346926c5960e11b8152600481018390526020816024817f00000000000000000000000000000000000000000000000000000000000000006001600160a01b03165afa9081156108085785916107e9575b5060018060a01b031690846040516331a9108f60e11b8152856004820152602081602481875afa9081156107ab5782916107ba575b506040519361068b856114ec565b6001600160a01b0382811680875233602080890191825260016040808b018281528c8a5260038452818a208e8b52909352882099518a549086166001600160a01b0319909116178a559151989091018054915160ff60a01b90151560a01b16989093166001600160a81b031990911617969096179055803b156107b6576040516323b872dd60e01b81526001600160a01b039290921660048301523360248301526044820187905282908290606490829084905af180156107ab57610792575b50816107878280806020957f03566a84c3ea55dc3d864ccd2b8e2944ffeacf544514c36d670b121fcb5dcf4697518982821561035857f16116e2565b51604051908152a480f35b8161079c91611554565b6107a757845f61074b565b8480fd5b6040513d84823e3d90fd5b8280fd5b6107dc915060203d6020116107e2575b6107d48183611554565b810190611616565b5f61067d565b503d6107ca565b610802915060203d6020116107e2576107d48183611554565b5f610648565b6040513d87823e3d90fd5b60405162461bcd60e51b815260206004820152601e60248201527f426f6f6b696e67207072696365206973206e6f7420617661696c61626c6500006044820152606490fd5b50346108e45760203660031901126108e4576004356001600160a01b038116908190036108e2576108876119b1565b80156108ce5781546001600160a01b03198116821783556001600160a01b03167f8be0079c531659141344cd1fd0a4f28419497f9722a3daafe3b4186f6b6457e08380a380f35b631e4fbdf760e01b82526004829052602482fd5b505b80fd5b50346108e45760206109016108fb366114d6565b906119d7565b6040519015158152f35b50346108e457806003193601126108e4576020600554604051908152f35b5061093336611576565b9061094361056c828596956119d7565b83835260016020526040832081845260205260408320936040516109668161151c565b60018060a01b03865416815260018601546020820152600286015460408201526003860154906060810191825260048701549060c060066080830199848b52600581015460a085015201549101523403610c27576040516346926c5960e11b8152600481018390526020816024817f00000000000000000000000000000000000000000000000000000000000000006001600160a01b03165afa908115610c1c578691610bfd575b506040516331a9108f60e11b81526004810185905296906001600160a01b0316602088602481845afa978815610b88578798610bdc575b506001600160a01b03881697338914610b9757813b15610b93576040516323b872dd60e01b81526001600160a01b03919091166004820152336024820152604481018690529087908290606490829084905af18015610b8857908791610b6f575b50808080610abd94518b82821561035857f16116e2565b81855260026020526040852083865260205260408520905160405196610ae288611538565b87526020870152805490600160401b821015610b5b5790610b08916001820181556114a9565b610b4757855181546001600160a01b0319166001600160a01b03919091161781556020909501516001909501949094559192610b44929061178d565b80f35b634e487b7160e01b85526004859052602485fd5b634e487b7160e01b86526041600452602486fd5b81610b7991611554565b610b8457855f610aa6565b8580fd5b6040513d89823e3d90fd5b8780fd5b60405162461bcd60e51b815260206004820152601c60248201527f43616e6e6f742072656e7420796f7572206f776e206c697374696e67000000006044820152606490fd5b610bf691985060203d6020116107e2576107d48183611554565b965f610a45565b610c16915060203d6020116107e2576107d48183611554565b5f610a0e565b6040513d88823e3d90fd5b60405162461bcd60e51b815260206004820152601760248201527f496e636f72726563742072656e742073656375726974790000000000000000006044820152606490fd5b50346108e45760c03660031901126108e457600435602435610c95620151804204821015611635565b6040516346926c5960e11b8152600481018390527f00000000000000000000000000000000000000000000000000000000000000006001600160a01b0316602082602481845afa918215610808578592610fc1575b506020602491604051928380926331a9108f60e11b82528860048301525afa908115610808578591610fa2575b50336001600160a01b0390911603610f68576040516340c10f1960e01b815233600482015260248101839052906020908290604490829088906001600160a01b03165af18015610f5d57610f2a575b50604051610d738161151c565b338152600660208201848152604083018481526060840160443581526080850190606435825260a0860192608435845260c087019460a4358652898b52600160205260408b20898c5260205260408b209760018060a01b039060018060a01b03905116166bffffffffffffffffffffffff60a01b8954161788555160018801555160028701555160038601555160048501555160058401555191015560209060405192610e208385611554565b8484528452600282526040842090845281526040832090825192600160401b8411610f165781908354858555808610610ea7575b500191845280842084925b848410610e6a578580f35b8051805183546001600160a01b0319166001600160a01b039190911617835560200151600183810191909155906002908401920193019290610e5f565b9091506001600160ff1b0381168103610f02576001600160ff1b0385168503610f02579082918487528287209060011b8101908660011b015b818110610eed5750610e54565b87815560018101889055849350600201610ee0565b634e487b7160e01b86526011600452602486fd5b634e487b7160e01b85526041600452602485fd5b6020813d602011610f55575b81610f4360209383611554565b81010312610f515751610d66565b8380fd5b3d9150610f36565b6040513d86823e3d90fd5b60405162461bcd60e51b81526020600482015260126024820152712737ba10383937b832b93a3c9037bbb732b960711b6044820152606490fd5b610fbb915060203d6020116107e2576107d48183611554565b5f610d17565b6024919250610fde602091823d84116107e2576107d48183611554565b929150610cea565b50346108e457604060e091610ffa366114d6565b908260c085516110098161151c565b82815282602082015282878201528260608201528260808201528260a0820152015282526001602052828220908252602052206040516110488161151c565b60018060a01b0382541691828252600181015460208301908152600282015460408401908152600383015490606085019182526004840154926080860193845260c0600660058701549660a08901978852015496019586526040519687525160208701525160408601525160608501525160808401525160a08301525160c0820152f35b50346108e45760406060916110e0366114d6565b90825260036020528282209082526020522060ff6001808060a01b0383541692015460405192835260018060a01b038116602084015260a01c1615156040820152f35b50346108e457806003193601126108e457546040516001600160a01b039091168152602090f35b50346108e457806003193601126108e4576111636119b1565b80546001600160a01b03198116825581906001600160a01b03167f8be0079c531659141344cd1fd0a4f28419497f9722a3daafe3b4186f6b6457e08280a380f35b50346108e457610b446111b636611576565b9161178d565b50346108e45760ff60406020926111d2366114d6565b9082526004855282822090825284522054166040519015158152f35b50346108e457604060e091611202366114d6565b90825260016020528282209082526020522060018060a01b0381541690600181015490600281015460038201546004830154916006600585015494015494604051968752602087015260408601526060850152608084015260a083015260c0820152f35b50346108e457806003193601126108e4576040517f00000000000000000000000000000000000000000000000000000000000000006001600160a01b03168152602090f35b506112b5366114d6565b815f52600460205260405f20815f5260205260ff60405f20541661140757815f52600360205260405f20815f5260205260405f20916112fe60ff600160405195610138876114ec565b805f52600360205260405f20825f526020525f6001604082208281550155604051906346926c5960e11b8252600482015260208160248160018060a01b037f0000000000000000000000000000000000000000000000000000000000000000165afa9081156113d9575f916113e8575b5091516001600160a01b03928316921690823b156113e4576040516323b872dd60e01b81523360048201526001600160a01b039290921660248301526044820152905f908290606490829084905af180156113d9576113cb575080f35b6113d791505f90611554565b005b6040513d5f823e3d90fd5b5f80fd5b611401915060203d6020116107e2576107d48183611554565b5f61136e565b60405162461bcd60e51b8152602060048201526014602482015273131a5cdd1a5b99c81a5cc818dbdb5c1b195d195960621b6044820152606490fd5b346113e45760603660031901126113e4576044356004355f52600260205260405f206024355f5260205260405f209081548110156113e457611484916114a9565b508054600190910154604080516001600160a01b039093168352602083019190915290f35b80548210156114c2575f5260205f209060011b01905f90565b634e487b7160e01b5f52603260045260245ffd5b60409060031901126113e4576004359060243590565b6060810190811067ffffffffffffffff82111761150857604052565b634e487b7160e01b5f52604160045260245ffd5b60e0810190811067ffffffffffffffff82111761150857604052565b6040810190811067ffffffffffffffff82111761150857604052565b90601f8019910116810190811067ffffffffffffffff82111761150857604052565b60c06003198201126113e4576004359160806024359260431901126113e4576040516080810181811067ffffffffffffffff8211176115085760405260443581526064356020820152608435604082015260a435606082015290565b156115d957565b60405162461bcd60e51b8152602060048201526015602482015274131a5cdd1a5b99c81a5cc81b9bdd08189bdbdad959605a1b6044820152606490fd5b908160209103126113e457516001600160a01b03811681036113e45790565b1561163c57565b60405162461bcd60e51b815260206004820152601360248201527211185d19481a5cc81a5b881d1a19481c185cdd606a1b6044820152606490fd5b8181029291811591840414171561168a57565b634e487b7160e01b5f52601160045260245ffd5b156116a557565b60405162461bcd60e51b81526020600482015260156024820152744c697374696e67206973206e6f742061637469766560581b6044820152606490fd5b156116e957565b60405162461bcd60e51b815260206004820152600f60248201526e151c985b9cd9995c8819985a5b1959608a1b6044820152606490fd5b1561172757565b60405162461bcd60e51b815260206004820152601760248201527f496e636f727265637420626f6f6b696e672070726963650000000000000000006044820152606490fd5b80518210156114c25760209160051b010190565b9190820391821161168a57565b919091805f52600360205260405f20835f5260205260ff600160405f20015460a01c1661196c576040516346926c5960e11b8152600481018290526020816024817f00000000000000000000000000000000000000000000000000000000000000006001600160a01b03165afa9081156113d9576024916020915f9161194f575b506040516331a9108f60e11b81526004810187905292839182906001600160a01b03165afa9081156113d9575f91611930575b50336001600160a01b03909116036118fc5781600692516020820151906060604084015193015193604051966118768861151c565b33885260208089018381526040808b0184815260608c0196875260808c0197885260a08c0198895260c08c01998a525f958652600180855282872095875294909352909320985189546001600160a01b0319166001600160a01b039190911617895591519088015551600287015551600386015551600485015551600584015551910155565b60405162461bcd60e51b815260206004820152600c60248201526b155b985d5d1a1bdc9a5e995960a21b6044820152606490fd5b611949915060203d6020116107e2576107d48183611554565b5f611841565b6119669150823d84116107e2576107d48183611554565b5f61180e565b60405162461bcd60e51b815260206004820152601c60248201527f43616e6e6f742075706461746520626f6f6b6564206c697374696e67000000006044820152606490fd5b5f546001600160a01b031633036119c457565b63118cdaa760e01b5f523360045260245ffd5b805f52600360205260405f20825f5260205260ff600160405f20015460a01c16611a31575f52600460205260405f20815f5260205260ff60405f205416611a2c5762015180420411611a2857600190565b5f90565b505f90565b50505f9056fe4dce883f4cabbfe522840e5503883f88c5ec4c3eb5a04fc54676792ba0798de9807828567e03f2b8f96f8423dcbd7f660b13d290ffdcbffa4ab09ef20c8713a8a2646970667358221220070884af1efc668eaf27fbbd1edfef7db55cdd48b27deee16c6fa2efe585f8a264736f6c634300081e0033",
        "linkReferences": {}
    },
    "methodIdentifiers": {
        "bookListing(uint256,uint256)": "f3171f7c",
        "cancelBooking(uint256,uint256)": "32229205",
        "createListing(uint256,uint256,uint256,uint256,uint256,uint256)": "b0a50109",
        "getListing(uint256,uint256)": "adb2fc6a",
        "isListingActive(uint256,uint256)": "edfc8b67",
        "listingBooked(uint256,uint256)": "8f41760e",
        "listingCompleted(uint256,uint256)": "4f14ceaa",
        "listingSplits(uint256,uint256,uint256)": "273c72e6",
        "listings(uint256,uint256)": "4d3084d3",
        "owner()": "8da5cb5b",
        "platformFeePPS()": "d275fbb2",
        "propertyToken()": "43ae2695",
        "renounceOwnership()": "715018a6",
        "rentListing(uint256,uint256,(uint256,uint256,uint256,uint256))": "d1d2281c",
        "transferOwnership(address)": "f2fde38b",
        "unlockRoom(uint256,uint256)": "f32e9157",
        "updateListing(uint256,uint256,(uint256,uint256,uint256,uint256))": "64a50733"
    },
    "id": 38
}