{
    "abi": [
        {
            "type": "constructor",
            "inputs": [
                {
                    "name": "name_",
                    "type": "string",
                    "internalType": "string"
                },
                {
                    "name": "symbol_",
                    "type": "string",
                    "internalType": "string"
                },
                {
                    "name": "baseTokenURI_",
                    "type": "string",
                    "internalType": "string"
                }
            ],
            "stateMutability": "nonpayable"
        },
        {
            "type": "function",
            "name": "approve",
            "inputs": [
                {
                    "name": "to",
                    "type": "address",
                    "internalType": "address"
                },
                {
                    "name": "tokenId",
                    "type": "uint256",
                    "internalType": "uint256"
                }
            ],
            "outputs": [],
            "stateMutability": "nonpayable"
        },
        {
            "type": "function",
            "name": "balanceOf",
            "inputs": [
                {
                    "name": "owner",
                    "type": "address",
                    "internalType": "address"
                }
            ],
            "outputs": [
                {
                    "name": "",
                    "type": "uint256",
                    "internalType": "uint256"
                }
            ],
            "stateMutability": "view"
        },
        {
            "type": "function",
            "name": "baseURI",
            "inputs": [],
            "outputs": [
                {
                    "name": "",
                    "type": "string",
                    "internalType": "string"
                }
            ],
            "stateMutability": "view"
        },
        {
            "type": "function",
            "name": "date_token",
            "inputs": [
                {
                    "name": "propertyId",
                    "type": "uint256",
                    "internalType": "uint256"
                }
            ],
            "outputs": [
                {
                    "name": "",
                    "type": "address",
                    "internalType": "address"
                }
            ],
            "stateMutability": "view"
        },
        {
            "type": "function",
            "name": "date_tokens",
            "inputs": [
                {
                    "name": "propertyId",
                    "type": "uint256",
                    "internalType": "uint256"
                }
            ],
            "outputs": [
                {
                    "name": "date_token",
                    "type": "address",
                    "internalType": "address"
                }
            ],
            "stateMutability": "view"
        },
        {
            "type": "function",
            "name": "getApproved",
            "inputs": [
                {
                    "name": "tokenId",
                    "type": "uint256",
                    "internalType": "uint256"
                }
            ],
            "outputs": [
                {
                    "name": "",
                    "type": "address",
                    "internalType": "address"
                }
            ],
            "stateMutability": "view"
        },
        {
            "type": "function",
            "name": "isApprovedForAll",
            "inputs": [
                {
                    "name": "owner",
                    "type": "address",
                    "internalType": "address"
                },
                {
                    "name": "operator",
                    "type": "address",
                    "internalType": "address"
                }
            ],
            "outputs": [
                {
                    "name": "",
                    "type": "bool",
                    "internalType": "bool"
                }
            ],
            "stateMutability": "view"
        },
        {
            "type": "function",
            "name": "marketplace",
            "inputs": [],
            "outputs": [
                {
                    "name": "",
                    "type": "address",
                    "internalType": "address"
                }
            ],
            "stateMutability": "view"
        },
        {
            "type": "function",
            "name": "mint",
            "inputs": [
                {
                    "name": "to",
                    "type": "address",
                    "internalType": "address"
                },
                {
                    "name": "propertyId",
                    "type": "uint256",
                    "internalType": "uint256"
                }
            ],
            "outputs": [
                {
                    "name": "",
                    "type": "uint256",
                    "internalType": "uint256"
                }
            ],
            "stateMutability": "nonpayable"
        },
        {
            "type": "function",
            "name": "name",
            "inputs": [],
            "outputs": [
                {
                    "name": "",
                    "type": "string",
                    "internalType": "string"
                }
            ],
            "stateMutability": "view"
        },
        {
            "type": "function",
            "name": "owner",
            "inputs": [],
            "outputs": [
                {
                    "name": "",
                    "type": "address",
                    "internalType": "address"
                }
            ],
            "stateMutability": "view"
        },
        {
            "type": "function",
            "name": "ownerOf",
            "inputs": [
                {
                    "name": "tokenId",
                    "type": "uint256",
                    "internalType": "uint256"
                }
            ],
            "outputs": [
                {
                    "name": "",
                    "type": "address",
                    "internalType": "address"
                }
            ],
            "stateMutability": "view"
        },
        {
            "type": "function",
            "name": "renounceOwnership",
            "inputs": [],
            "outputs": [],
            "stateMutability": "nonpayable"
        },
        {
            "type": "function",
            "name": "safeTransferFrom",
            "inputs": [
                {
                    "name": "from",
                    "type": "address",
                    "internalType": "address"
                },
                {
                    "name": "to",
                    "type": "address",
                    "internalType": "address"
                },
                {
                    "name": "tokenId",
                    "type": "uint256",
                    "internalType": "uint256"
                }
            ],
            "outputs": [],
            "stateMutability": "nonpayable"
        },
        {
            "type": "function",
            "name": "safeTransferFrom",
            "inputs": [
                {
                    "name": "from",
                    "type": "address",
                    "internalType": "address"
                },
                {
                    "name": "to",
                    "type": "address",
                    "internalType": "address"
                },
                {
                    "name": "tokenId",
                    "type": "uint256",
                    "internalType": "uint256"
                },
                {
                    "name": "data",
                    "type": "bytes",
                    "internalType": "bytes"
                }
            ],
            "outputs": [],
            "stateMutability": "nonpayable"
        },
        {
            "type": "function",
            "name": "setApprovalForAll",
            "inputs": [
                {
                    "name": "operator",
                    "type": "address",
                    "internalType": "address"
                },
                {
                    "name": "approved",
                    "type": "bool",
                    "internalType": "bool"
                }
            ],
            "outputs": [],
            "stateMutability": "nonpayable"
        },
        {
            "type": "function",
            "name": "setBaseURI",
            "inputs": [
                {
                    "name": "newBaseURI",
                    "type": "string",
                    "internalType": "string"
                }
            ],
            "outputs": [],
            "stateMutability": "nonpayable"
        },
        {
            "type": "function",
            "name": "setMarketplace",
            "inputs": [
                {
                    "name": "marketplace_",
                    "type": "address",
                    "internalType": "address"
                }
            ],
            "outputs": [],
            "stateMutability": "nonpayable"
        },
        {
            "type": "function",
            "name": "supportsInterface",
            "inputs": [
                {
                    "name": "interfaceId",
                    "type": "bytes4",
                    "internalType": "bytes4"
                }
            ],
            "outputs": [
                {
                    "name": "",
                    "type": "bool",
                    "internalType": "bool"
                }
            ],
            "stateMutability": "view"
        },
        {
            "type": "function",
            "name": "symbol",
            "inputs": [],
            "outputs": [
                {
                    "name": "",
                    "type": "string",
                    "internalType": "string"
                }
            ],
            "stateMutability": "view"
        },
        {
            "type": "function",
            "name": "tokenURI",
            "inputs": [
                {
                    "name": "tokenId",
                    "type": "uint256",
                    "internalType": "uint256"
                }
            ],
            "outputs": [
                {
                    "name": "",
                    "type": "string",
                    "internalType": "string"
                }
            ],
            "stateMutability": "view"
        },
        {
            "type": "function",
            "name": "transferFrom",
            "inputs": [
                {
                    "name": "from",
                    "type": "address",
                    "internalType": "address"
                },
                {
                    "name": "to",
                    "type": "address",
                    "internalType": "address"
                },
                {
                    "name": "tokenId",
                    "type": "uint256",
                    "internalType": "uint256"
                }
            ],
            "outputs": [],
            "stateMutability": "nonpayable"
        },
        {
            "type": "function",
            "name": "transferOwnership",
            "inputs": [
                {
                    "name": "newOwner",
                    "type": "address",
                    "internalType": "address"
                }
            ],
            "outputs": [],
            "stateMutability": "nonpayable"
        },
        {
            "type": "event",
            "name": "Approval",
            "inputs": [
                {
                    "name": "owner",
                    "type": "address",
                    "indexed": true,
                    "internalType": "address"
                },
                {
                    "name": "approved",
                    "type": "address",
                    "indexed": true,
                    "internalType": "address"
                },
                {
                    "name": "tokenId",
                    "type": "uint256",
                    "indexed": true,
                    "internalType": "uint256"
                }
            ],
            "anonymous": false
        },
        {
            "type": "event",
            "name": "ApprovalForAll",
            "inputs": [
                {
                    "name": "owner",
                    "type": "address",
                    "indexed": true,
                    "internalType": "address"
                },
                {
                    "name": "operator",
                    "type": "address",
                    "indexed": true,
                    "internalType": "address"
                },
                {
                    "name": "approved",
                    "type": "bool",
                    "indexed": false,
                    "internalType": "bool"
                }
            ],
            "anonymous": false
        },
        {
            "type": "event",
            "name": "OwnershipTransferred",
            "inputs": [
                {
                    "name": "previousOwner",
                    "type": "address",
                    "indexed": true,
                    "internalType": "address"
                },
                {
                    "name": "newOwner",
                    "type": "address",
                    "indexed": true,
                    "internalType": "address"
                }
            ],
            "anonymous": false
        },
        {
            "type": "event",
            "name": "Transfer",
            "inputs": [
                {
                    "name": "from",
                    "type": "address",
                    "indexed": true,
                    "internalType": "address"
                },
                {
                    "name": "to",
                    "type": "address",
                    "indexed": true,
                    "internalType": "address"
                },
                {
                    "name": "tokenId",
                    "type": "uint256",
                    "indexed": true,
                    "internalType": "uint256"
                }
            ],
            "anonymous": false
        },
        {
            "type": "error",
            "name": "ERC721IncorrectOwner",
            "inputs": [
                {
                    "name": "sender",
                    "type": "address",
                    "internalType": "address"
                },
                {
                    "name": "tokenId",
                    "type": "uint256",
                    "internalType": "uint256"
                },
                {
                    "name": "owner",
                    "type": "address",
                    "internalType": "address"
                }
            ]
        },
        {
            "type": "error",
            "name": "ERC721InsufficientApproval",
            "inputs": [
                {
                    "name": "operator",
                    "type": "address",
                    "internalType": "address"
                },
                {
                    "name": "tokenId",
                    "type": "uint256",
                    "internalType": "uint256"
                }
            ]
        },
        {
            "type": "error",
            "name": "ERC721InvalidApprover",
            "inputs": [
                {
                    "name": "approver",
                    "type": "address",
                    "internalType": "address"
                }
            ]
        },
        {
            "type": "error",
            "name": "ERC721InvalidOperator",
            "inputs": [
                {
                    "name": "operator",
                    "type": "address",
                    "internalType": "address"
                }
            ]
        },
        {
            "type": "error",
            "name": "ERC721InvalidOwner",
            "inputs": [
                {
                    "name": "owner",
                    "type": "address",
                    "internalType": "address"
                }
            ]
        },
        {
            "type": "error",
            "name": "ERC721InvalidReceiver",
            "inputs": [
                {
                    "name": "receiver",
                    "type": "address",
                    "internalType": "address"
                }
            ]
        },
        {
            "type": "error",
            "name": "ERC721InvalidSender",
            "inputs": [
                {
                    "name": "sender",
                    "type": "address",
                    "internalType": "address"
                }
            ]
        },
        {
            "type": "error",
            "name": "ERC721NonexistentToken",
            "inputs": [
                {
                    "name": "tokenId",
                    "type": "uint256",
                    "internalType": "uint256"
                }
            ]
        },
        {
            "type": "error",
            "name": "OwnableInvalidOwner",
            "inputs": [
                {
                    "name": "owner",
                    "type": "address",
                    "internalType": "address"
                }
            ]
        },
        {
            "type": "error",
            "name": "OwnableUnauthorizedAccount",
            "inputs": [
                {
                    "name": "account",
                    "type": "address",
                    "internalType": "address"
                }
            ]
        }
    ],
    "bytecode": {
        "object": "0x6080604052346104c357612f3680380380610019816104c7565b92833981016060828203126104c35781516001600160401b0381116104c357816100449184016104ec565b60208301519092906001600160401b0381116104c357826100669183016104ec565b60408201519092906001600160401b0381116104c35761008692016104ec565b82516001600160401b0381116102eb575f54600181811c911680156104b9575b60208210146102cd57601f8111610457575b506020601f82116001146103f657819293945f926103eb575b50508160011b915f199060031b1c1916175f555b81516001600160401b0381116102eb57600154600181811c911680156103e1575b60208210146102cd57601f811161037e575b50602092601f821160011461031d57928192935f92610312575b50508160011b915f199060031b1c1916176001555b33156102ff5760068054336001600160a01b0319821681179092556001600160a01b03167f8be0079c531659141344cd1fd0a4f28419497f9722a3daafe3b4186f6b6457e05f80a380516001600160401b0381116102eb57600754600181811c911680156102e1575b60208210146102cd57601f811161026a575b50602091601f821160011461020a579181925f926101ff575b50508160011b915f199060031b1c1916176007555b6040516129f8908161053e8239f35b015190505f806101db565b601f1982169260075f52805f20915f5b8581106102525750836001951061023a575b505050811b016007556101f0565b01515f1960f88460031b161c191690555f808061022c565b9192602060018192868501518155019401920161021a565b60075f527fa66cc928b5edb82af9bd49922954155ab7b0942694bea4ce44661d9a8736c688601f830160051c810191602084106102c3575b601f0160051c01905b8181106102b857506101c2565b5f81556001016102ab565b90915081906102a2565b634e487b7160e01b5f52602260045260245ffd5b90607f16906101b0565b634e487b7160e01b5f52604160045260245ffd5b631e4fbdf760e01b5f525f60045260245ffd5b015190505f80610132565b601f1982169360015f52805f20915f5b868110610366575083600195961061034e575b505050811b01600155610147565b01515f1960f88460031b161c191690555f8080610340565b9192602060018192868501518155019401920161032d565b60015f527fb10e2d527612073b26eecdfd717e6a320cf44b4afac2b0732d9fcbe2b7fa0cf6601f830160051c810191602084106103d7575b601f0160051c01905b8181106103cc5750610118565b5f81556001016103bf565b90915081906103b6565b90607f1690610106565b015190505f806100d1565b601f198216905f8052805f20915f5b81811061043f57509583600195969710610427575b505050811b015f556100e5565b01515f1960f88460031b161c191690555f808061041a565b9192602060018192868b015181550194019201610405565b5f80527f290decd9548b62a8d60345a988386fc84ba6bc95484008f6362f93160ef3e563601f830160051c810191602084106104af575b601f0160051c01905b8181106104a457506100b8565b5f8155600101610497565b909150819061048e565b90607f16906100a6565b5f80fd5b6040519190601f01601f191682016001600160401b038111838210176102eb57604052565b81601f820112156104c3578051906001600160401b0382116102eb5761051b601f8301601f19166020016104c7565b92828452602083830101116104c357815f9260208093018386015e830101529056fe6080806040526004361015610012575f80fd5b5f3560e01c90816301ffc9a714610be15750806306fdde0314610bc6578063081812fc14610b8a578063095ea7b314610abc57806323b872dd14610aa557806340c10f191461087357806342842e0e1461084a57806355f804b3146106bb5780636352211e1461068b5780636c0360eb1461067057806370a082311461061f578063715018a6146105c457806373ad6c2d146105815780638d24d8b2146105275780638da5cb5b146105595780639293e4191461052757806395d89b411461050c578063a22cb46514610471578063abc8c7af14610449578063b88d4fde146103e7578063c87b56dd146101d9578063e985e9c5146101a35763f2fde38b14610119575f80fd5b3461019f57602036600319011261019f57610132610c70565b61013a611286565b6001600160a01b0316801561018c57600680546001600160a01b0319811683179091556001600160a01b03167f8be0079c531659141344cd1fd0a4f28419497f9722a3daafe3b4186f6b6457e05f80a3005b631e4fbdf760e01b5f525f60045260245ffd5b5f80fd5b3461019f57604036600319011261019f5760206101cf6101c1610c70565b6101c9610c86565b90611208565b6040519015158152f35b3461019f57602036600319011261019f576004356101f681611252565b506101ff610ecb565b8051909190156103cc575f818072184f03e93ff9f4daa797ed6e38ed64bf6a1f0160401b8110156103a6575b50806d04ee2d6d415b85acef8100000000600a92101561038b575b662386f26fc10000811015610377575b6305f5e100811015610366575b612710811015610357575b6064811015610349575b1015610341575b6001810191600a60216102aa61029486610cf8565b956102a26040519788610cd6565b808752610cf8565b602086019490601f19013686378501015b5f1901916f181899199a1a9b1b9c1cb0b131b232b360811b8282061a8353049081156102e957600a906102bb565b505061033d9260206103299281946040519584879551918291018587015e840190838201905f8252519283915e01015f815203601f198101835282610cd6565b604051918291602083526020830190610c4c565b0390f35b60010161027f565b606460029104920191610278565b6127106004910492019161026e565b6305f5e10060089104920191610263565b662386f26fc1000060109104920191610256565b6d04ee2d6d415b85acef810000000060209104920191610246565b6040925072184f03e93ff9f4daa797ed6e38ed64bf6a1f0160401b90049050600a61022b565b505061033d6040516103df602082610cd6565b5f8152610329565b3461019f57608036600319011261019f57610400610c70565b610408610c86565b6064359167ffffffffffffffff831161019f573660238401121561019f5761043d610447933690602481600401359101610d14565b91604435916110c8565b005b3461019f575f36600319011261019f576008546040516001600160a01b039091168152602090f35b3461019f57604036600319011261019f5761048a610c70565b6024359081151580920361019f576001600160a01b03169081156104f957335f52600560205260405f20825f5260205260405f2060ff1981541660ff83161790556040519081527f17307eab39ab6107e8899845ad3d59bd9653f200f220920489ca2b5937696c3160203392a3005b50630b61174360e31b5f5260045260245ffd5b3461019f575f36600319011261019f5761033d610329610e36565b3461019f57602036600319011261019f576004355f526009602052602060018060a01b0360405f205416604051908152f35b3461019f575f36600319011261019f576006546040516001600160a01b039091168152602090f35b3461019f57602036600319011261019f5761059a610c70565b6105a2611286565b600880546001600160a01b0319166001600160a01b0392909216919091179055005b3461019f575f36600319011261019f576105dc611286565b600680546001600160a01b031981169091555f906001600160a01b03167f8be0079c531659141344cd1fd0a4f28419497f9722a3daafe3b4186f6b6457e08280a3005b3461019f57602036600319011261019f576001600160a01b03610640610c70565b16801561065d575f526003602052602060405f2054604051908152f35b6322718ad960e21b5f525f60045260245ffd5b3461019f575f36600319011261019f5761033d610329610ecb565b3461019f57602036600319011261019f5760206106a9600435611252565b6040516001600160a01b039091168152f35b3461019f57602036600319011261019f5760043567ffffffffffffffff811161019f573660238201121561019f576106fd903690602481600401359101610d14565b610705611286565b805167ffffffffffffffff811161083657610721600754610d4a565b601f81116107ce575b50602091601f8211600114610766579181925f9261075b575b50505f19600383901b1c191660019190911b17600755005b015190508280610743565b601f1982169260075f525f5160206129a35f395f51905f52915f5b8581106107b65750836001951061079e575b505050811b01600755005b01515f1960f88460031b161c19169055828080610793565b91926020600181928685015181550194019201610781565b60075f52601f820160051c5f5160206129a35f395f51905f52019060208310610821575b601f0160051c5f5160206129a35f395f51905f5201905b818110610816575061072a565b5f8155600101610809565b5f5160206129a35f395f51905f5291506107f2565b634e487b7160e01b5f52604160045260245ffd5b3461019f5761044761085b36610c9c565b906040519261086b602085610cd6565b5f84526110c8565b3461019f57604036600319011261019f5761088c610c70565b6024359060018060a01b036006541633148015610a91575b15610a4c576001600160a01b03168015610a39575f828152600260205260409020546001600160a01b031680151591839083610a06575b805f52600360205260405f2060018154019055815f52600260205260405f20816bffffffffffffffffffffffff60a01b825416179055827fddf252ad1be2c89b69c2b068fc378daa952ba7f163c4a11628f55a4df523b3ef5f80a4506109f357610943610d82565b61094b610e36565b90604051916116f5918284019184831067ffffffffffffffff841117610836576109876109959286956112ae873960a0855260a0850190610c4c565b908382036020850152610c4c565b9030604082015284606082015260803391015203905ff09081156109e8575f8181526009602090815260409182902080546001600160a01b0319166001600160a01b039095169490941790935551908152f35b6040513d5f823e3d90fd5b6339e3563760e11b5f525f60045260245ffd5b5f82815260046020526040902080546001600160a01b0319169055825f52600360205260405f205f1981540190556108db565b633250574960e11b5f525f60045260245ffd5b60405162461bcd60e51b815260206004820152601860248201527f4e6f74206f776e6572206f72206d61726b6574706c61636500000000000000006044820152606490fd5b506008546001600160a01b031633146108a4565b3461019f57610447610ab636610c9c565b91610f4d565b3461019f57604036600319011261019f57610ad5610c70565b602435610ae181611252565b33151580610b77575b80610b66575b610b535781906001600160a01b0384811691167f8c5be1e5ebec7d5bd14f71427d1e84f3dd0314c0f7b2291e5b200ac8c7c3b9255f80a45f90815260046020526040902080546001600160a01b0319166001600160a01b03909216919091179055005b63a9fbf51f60e01b5f523360045260245ffd5b50610b713382611208565b15610af0565b506001600160a01b038116331415610aea565b3461019f57602036600319011261019f57600435610ba781611252565b505f526004602052602060018060a01b0360405f205416604051908152f35b3461019f575f36600319011261019f5761033d610329610d82565b3461019f57602036600319011261019f576004359063ffffffff60e01b821680920361019f576020916380ac58cd60e01b8114908115610c3b575b8115610c2a575b5015158152f35b6301ffc9a760e01b14905083610c23565b635b5e139f60e01b81149150610c1c565b805180835260209291819084018484015e5f828201840152601f01601f1916010190565b600435906001600160a01b038216820361019f57565b602435906001600160a01b038216820361019f57565b606090600319011261019f576004356001600160a01b038116810361019f57906024356001600160a01b038116810361019f579060443590565b90601f8019910116810190811067ffffffffffffffff82111761083657604052565b67ffffffffffffffff811161083657601f01601f191660200190565b929192610d2082610cf8565b91610d2e6040519384610cd6565b82948184528183011161019f578281602093845f960137010152565b90600182811c92168015610d78575b6020831014610d6457565b634e487b7160e01b5f52602260045260245ffd5b91607f1691610d59565b604051905f825f5491610d9483610d4a565b8083529260018116908115610e175750600114610dba575b610db892500383610cd6565b565b505f80805290917f290decd9548b62a8d60345a988386fc84ba6bc95484008f6362f93160ef3e5635b818310610dfb575050906020610db892820101610dac565b6020919350806001915483858901015201910190918492610de3565b60209250610db894915060ff191682840152151560051b820101610dac565b604051905f8260015491610e4983610d4a565b8083529260018116908115610e175750600114610e6c57610db892500383610cd6565b5060015f90815290917fb10e2d527612073b26eecdfd717e6a320cf44b4afac2b0732d9fcbe2b7fa0cf65b818310610eaf575050906020610db892820101610dac565b6020919350806001915483858901015201910190918492610e97565b604051905f8260075491610ede83610d4a565b8083529260018116908115610e175750600114610f0157610db892500383610cd6565b5060075f90815290915f5160206129a35f395f51905f525b818310610f31575050906020610db892820101610dac565b6020919350806001915483858901015201910190918492610f19565b6001600160a01b0390911691908215610a39575f828152600260205260409020546001600160a01b031692829033151580611045575b5084611012575b805f52600360205260405f2060018154019055815f52600260205260405f20816bffffffffffffffffffffffff60a01b825416179055847fddf252ad1be2c89b69c2b068fc378daa952ba7f163c4a11628f55a4df523b3ef5f80a46001600160a01b0316808303610ffa57505050565b6364283d7b60e01b5f5260045260245260445260645ffd5b5f82815260046020526040902080546001600160a01b0319169055845f52600360205260405f205f198154019055610f8a565b90915080611089575b1561105b5782905f610f83565b828461107357637e27328960e01b5f5260045260245ffd5b63177e802f60e01b5f523360045260245260445ffd5b5033841480156110b8575b8061104e57505f838152600460205260409020546001600160a01b0316331461104e565b506110c33385611208565b611094565b92916110d5818386610f4d565b813b6110e2575b50505050565b604051630a85bd0160e11b81523360048201526001600160a01b039485166024820152604481019190915260806064820152921691906020908290819061112d906084830190610c4c565b03815f865af15f91816111c3575b5061119057503d15611189573d61115181610cf8565b9061115f6040519283610cd6565b81523d5f602083013e5b805190816111845782633250574960e11b5f5260045260245ffd5b602001fd5b6060611169565b6001600160e01b03191663757a42ff60e11b016111b157505f8080806110dc565b633250574960e11b5f5260045260245ffd5b9091506020813d602011611200575b816111df60209383610cd6565b8101031261019f57516001600160e01b03198116810361019f57905f61113b565b3d91506111d2565b6008546001600160a01b031633149190821561122357505090565b6001600160a01b039081165f90815260056020908152604080832093909416825291909152205460ff16919050565b5f818152600260205260409020546001600160a01b0316908115611274575090565b637e27328960e01b5f5260045260245ffd5b6006546001600160a01b0316330361129a57565b63118cdaa760e01b5f523360045260245ffdfe60a0604052346103d9576116f580380380610019816103dd565b928339810160a0828203126103d95781516001600160401b0381116103d95781610044918401610402565b602083015190916001600160401b0382116103d957610064918401610402565b9161007160408201610453565b91610083608060608401519301610453565b815190916001600160401b0382116102e0575f5490600182811c921680156103cf575b60208310146102c25781601f849311610362575b50602090601f83116001146102ff575f926102f4575b50508160011b915f199060031b1c1916175f555b83516001600160401b0381116102e057600154600181811c911680156102d6575b60208210146102c257601f811161025f575b50602094601f82116001146101fc579481929394955f926101f1575b50508160011b915f199060031b1c1916176001555b6001600160a01b03169182156101de57600680546001600160a01b03198116851790915560405193906001600160a01b03167f8be0079c531659141344cd1fd0a4f28419497f9722a3daafe3b4186f6b6457e05f80a36001600160a01b031660805260075561128d90816104688239608051818181610936015281816109da01528181610a5701528181611098015261117e0152f35b631e4fbdf760e01b5f525f60045260245ffd5b015190505f80610133565b601f1982169560015f52805f20915f5b8881106102475750836001959697981061022f575b505050811b01600155610148565b01515f1960f88460031b161c191690555f8080610221565b9192602060018192868501518155019401920161020c565b60015f527fb10e2d527612073b26eecdfd717e6a320cf44b4afac2b0732d9fcbe2b7fa0cf6601f830160051c810191602084106102b8575b601f0160051c01905b8181106102ad5750610117565b5f81556001016102a0565b9091508190610297565b634e487b7160e01b5f52602260045260245ffd5b90607f1690610105565b634e487b7160e01b5f52604160045260245ffd5b015190505f806100d0565b5f8080528281209350601f198516905b81811061034a5750908460019594939210610332575b505050811b015f556100e4565b01515f1960f88460031b161c191690555f8080610325565b9293602060018192878601518155019501930161030f565b5f80529091507f290decd9548b62a8d60345a988386fc84ba6bc95484008f6362f93160ef3e563601f840160051c810191602085106103c5575b90601f859493920160051c01905b8181106103b757506100ba565b5f81558493506001016103aa565b909150819061039c565b91607f16916100a6565b5f80fd5b6040519190601f01601f191682016001600160401b038111838210176102e057604052565b81601f820112156103d9578051906001600160401b0382116102e057610431601f8301601f19166020016103dd565b92828452602083830101116103d957815f9260208093018386015e8301015290565b51906001600160a01b03821682036103d95756fe6080806040526004361015610012575f80fd5b5f3560e01c90816301ffc9a714610c5f5750806306fdde0314610ba7578063081812fc14610b6b578063095ea7b314610a9d57806323b872dd14610a86578063381098fc14610a4257806340c10f191461074457806342842e0e1461071b5780636352211e146106eb5780636c0360eb146106d057806370a082311461067f578063715018a6146106245780638da5cb5b146105fc57806395d89b4114610508578063a22cb4651461046d578063a64abc8d14610450578063b88d4fde146103c6578063c87b56dd146101b8578063e985e9c5146101825763f2fde38b146100f8575f80fd5b3461017e57602036600319011261017e57610111610cee565b610119611230565b6001600160a01b0316801561016b57600680546001600160a01b0319811683179091556001600160a01b03167f8be0079c531659141344cd1fd0a4f28419497f9722a3daafe3b4186f6b6457e05f80a3005b631e4fbdf760e01b5f525f60045260245ffd5b5f80fd5b3461017e57604036600319011261017e5760206101ae6101a0610cee565b6101a8610d04565b90611080565b6040519015158152f35b3461017e57602036600319011261017e576004356101d581611136565b506101de61116a565b8051909190156103ab575f818072184f03e93ff9f4daa797ed6e38ed64bf6a1f0160401b811015610385575b50806d04ee2d6d415b85acef8100000000600a92101561036a575b662386f26fc10000811015610356575b6305f5e100811015610345575b612710811015610336575b6064811015610328575b1015610320575b6001810191600a602161028961027386610d8a565b956102816040519788610d54565b808752610d8a565b602086019490601f19013686378501015b5f1901916f181899199a1a9b1b9c1cb0b131b232b360811b8282061a8353049081156102c857600a9061029a565b505061031c9260206103089281946040519584879551918291018587015e840190838201905f8252519283915e01015f815203601f198101835282610d54565b604051918291602083526020830190610cca565b0390f35b60010161025e565b606460029104920191610257565b6127106004910492019161024d565b6305f5e10060089104920191610242565b662386f26fc1000060109104920191610235565b6d04ee2d6d415b85acef810000000060209104920191610225565b6040925072184f03e93ff9f4daa797ed6e38ed64bf6a1f0160401b90049050600a61020a565b505061031c6040516103be602082610d54565b5f8152610308565b3461017e57608036600319011261017e576103df610cee565b6103e7610d04565b6064359167ffffffffffffffff831161017e573660238401121561017e5782600401359161041483610d8a565b926104226040519485610d54565b808452366024828701011161017e576020815f92602461044e9801838801378501015260443591610f40565b005b3461017e575f36600319011261017e576020600754604051908152f35b3461017e57604036600319011261017e57610486610cee565b6024359081151580920361017e576001600160a01b03169081156104f557335f52600560205260405f20825f5260205260405f2060ff1981541660ff83161790556040519081527f17307eab39ab6107e8899845ad3d59bd9653f200f220920489ca2b5937696c3160203392a3005b50630b61174360e31b5f5260045260245ffd5b3461017e575f36600319011261017e576040515f6001548060011c906001811680156105f2575b6020831081146105de578285529081156105ba575060011461055c575b61031c8361030881850382610d54565b91905060015f527fb10e2d527612073b26eecdfd717e6a320cf44b4afac2b0732d9fcbe2b7fa0cf6915f905b8082106105a05750909150810160200161030861054c565b919260018160209254838588010152019101909291610588565b60ff191660208086019190915291151560051b84019091019150610308905061054c565b634e487b7160e01b5f52602260045260245ffd5b91607f169161052f565b3461017e575f36600319011261017e576006546040516001600160a01b039091168152602090f35b3461017e575f36600319011261017e5761063c611230565b600680546001600160a01b031981169091555f906001600160a01b03167f8be0079c531659141344cd1fd0a4f28419497f9722a3daafe3b4186f6b6457e08280a3005b3461017e57602036600319011261017e576001600160a01b036106a0610cee565b1680156106bd575f526003602052602060405f2054604051908152f35b6322718ad960e21b5f525f60045260245ffd5b3461017e575f36600319011261017e5761031c61030861116a565b3461017e57602036600319011261017e576020610709600435611136565b6040516001600160a01b039091168152f35b3461017e5761044e61072c36610d1a565b906040519261073c602085610d54565b5f8452610f40565b3461017e57604036600319011261017e5761075d610cee565b6024359060018060a01b0360065416331480156109b9575b8015610920575b156108c8576201518042048210610883576001600160a01b03168015610870575f828152600260205260409020546001600160a01b03168015159183908361083d575b805f52600360205260405f2060018154019055815f52600260205260405f20816bffffffffffffffffffffffff60a01b825416179055827fddf252ad1be2c89b69c2b068fc378daa952ba7f163c4a11628f55a4df523b3ef5f80a45061082a57602090604051908152f35b6339e3563760e11b5f525f60045260245ffd5b5f82815260046020526040902080546001600160a01b0319169055825f52600360205260405f205f1981540190556107bf565b633250574960e11b5f525f60045260245ffd5b60405162461bcd60e51b815260206004820152601a60248201527f44617465206d75737420626520696e20746865206675747572650000000000006044820152606490fd5b60405162461bcd60e51b815260206004820152602a60248201527f4e6f74206f776e6572206f722070726f7065727479206f776e6572206f72206d60448201526961726b6574706c61636560b01b6064820152608490fd5b5060405163abc8c7af60e01b81526020816004817f00000000000000000000000000000000000000000000000000000000000000006001600160a01b03165afa9081156109ae575f9161097f575b506001600160a01b0316331461077c565b6109a1915060203d6020116109a7575b6109998183610d54565b810190610f21565b8361096e565b503d61098f565b6040513d5f823e3d90fd5b506007546040516331a9108f60e11b815260048101919091526020816024817f00000000000000000000000000000000000000000000000000000000000000006001600160a01b03165afa9081156109ae575f91610a23575b506001600160a01b03163314610775565b610a3c915060203d6020116109a7576109998183610d54565b83610a12565b3461017e575f36600319011261017e576040517f00000000000000000000000000000000000000000000000000000000000000006001600160a01b03168152602090f35b3461017e5761044e610a9736610d1a565b91610da6565b3461017e57604036600319011261017e57610ab6610cee565b602435610ac281611136565b33151580610b58575b80610b47575b610b345781906001600160a01b0384811691167f8c5be1e5ebec7d5bd14f71427d1e84f3dd0314c0f7b2291e5b200ac8c7c3b9255f80a45f90815260046020526040902080546001600160a01b0319166001600160a01b03909216919091179055005b63a9fbf51f60e01b5f523360045260245ffd5b50610b523382611080565b15610ad1565b506001600160a01b038116331415610acb565b3461017e57602036600319011261017e57600435610b8881611136565b505f526004602052602060018060a01b0360405f205416604051908152f35b3461017e575f36600319011261017e576040515f5f548060011c90600181168015610c55575b6020831081146105de578285529081156105ba5750600114610bf95761031c8361030881850382610d54565b5f8080527f290decd9548b62a8d60345a988386fc84ba6bc95484008f6362f93160ef3e563939250905b808210610c3b5750909150810160200161030861054c565b919260018160209254838588010152019101909291610c23565b91607f1691610bcd565b3461017e57602036600319011261017e576004359063ffffffff60e01b821680920361017e576020916380ac58cd60e01b8114908115610cb9575b8115610ca8575b5015158152f35b6301ffc9a760e01b14905083610ca1565b635b5e139f60e01b81149150610c9a565b805180835260209291819084018484015e5f828201840152601f01601f1916010190565b600435906001600160a01b038216820361017e57565b602435906001600160a01b038216820361017e57565b606090600319011261017e576004356001600160a01b038116810361017e57906024356001600160a01b038116810361017e579060443590565b90601f8019910116810190811067ffffffffffffffff821117610d7657604052565b634e487b7160e01b5f52604160045260245ffd5b67ffffffffffffffff8111610d7657601f01601f191660200190565b6001600160a01b0390911691908215610870575f828152600260205260409020546001600160a01b031692829033151580610e9e575b5084610e6b575b805f52600360205260405f2060018154019055815f52600260205260405f20816bffffffffffffffffffffffff60a01b825416179055847fddf252ad1be2c89b69c2b068fc378daa952ba7f163c4a11628f55a4df523b3ef5f80a46001600160a01b0316808303610e5357505050565b6364283d7b60e01b5f5260045260245260445260645ffd5b5f82815260046020526040902080546001600160a01b0319169055845f52600360205260405f205f198154019055610de3565b90915080610ee2575b15610eb45782905f610ddc565b8284610ecc57637e27328960e01b5f5260045260245ffd5b63177e802f60e01b5f523360045260245260445ffd5b503384148015610f11575b80610ea757505f838152600460205260409020546001600160a01b03163314610ea7565b50610f1c3385611080565b610eed565b9081602091031261017e57516001600160a01b038116810361017e5790565b9291610f4d818386610da6565b813b610f5a575b50505050565b604051630a85bd0160e11b81523360048201526001600160a01b0394851660248201526044810191909152608060648201529216919060209082908190610fa5906084830190610cca565b03815f865af15f918161103b575b5061100857503d15611001573d610fc981610d8a565b90610fd76040519283610d54565b81523d5f602083013e5b80519081610ffc5782633250574960e11b5f5260045260245ffd5b602001fd5b6060610fe1565b6001600160e01b03191663757a42ff60e11b0161102957505f808080610f54565b633250574960e11b5f5260045260245ffd5b9091506020813d602011611078575b8161105760209383610d54565b8101031261017e57516001600160e01b03198116810361017e57905f610fb3565b3d915061104a565b60405163abc8c7af60e01b81529091906020816004817f00000000000000000000000000000000000000000000000000000000000000006001600160a01b03165afa9081156109ae575f91611117575b506001600160a01b031633149182156110e857505090565b6001600160a01b039081165f90815260056020908152604080832093909416825291909152205460ff16919050565b611130915060203d6020116109a7576109998183610d54565b5f6110d0565b5f818152600260205260409020546001600160a01b0316908115611158575090565b637e27328960e01b5f5260045260245ffd5b604051636c0360eb60e01b81525f816004817f00000000000000000000000000000000000000000000000000000000000000006001600160a01b03165afa9081156109ae575f916111b9575090565b90503d805f833e6111ca8183610d54565b81019060208183031261017e5780519067ffffffffffffffff821161017e570181601f8201121561017e5780519061120182610d8a565b9261120f6040519485610d54565b8284526020838301011161017e57815f9260208093018386015e8301015290565b6006546001600160a01b0316330361124457565b63118cdaa760e01b5f523360045260245ffdfea2646970667358221220e0ae80742f65606528e0398c1bd1786c44f9c1e4e76da1c725c60bdacec4e48564736f6c634300081e0033a66cc928b5edb82af9bd49922954155ab7b0942694bea4ce44661d9a8736c688a26469706673582212206485cc3e60dc9c60f009c6e755228d0b8742c53e0913c6b1dab8c640fa40774f64736f6c634300081e0033",
        "linkReferences": {}
    },
    "methodIdentifiers": {
        "approve(address,uint256)": "095ea7b3",
        "balanceOf(address)": "70a08231",
        "baseURI()": "6c0360eb",
        "date_token(uint256)": "8d24d8b2",
        "date_tokens(uint256)": "9293e419",
        "getApproved(uint256)": "081812fc",
        "isApprovedForAll(address,address)": "e985e9c5",
        "marketplace()": "abc8c7af",
        "mint(address,uint256)": "40c10f19",
        "name()": "06fdde03",
        "owner()": "8da5cb5b",
        "ownerOf(uint256)": "6352211e",
        "renounceOwnership()": "715018a6",
        "safeTransferFrom(address,address,uint256)": "42842e0e",
        "safeTransferFrom(address,address,uint256,bytes)": "b88d4fde",
        "setApprovalForAll(address,bool)": "a22cb465",
        "setBaseURI(string)": "55f804b3",
        "setMarketplace(address)": "73ad6c2d",
        "supportsInterface(bytes4)": "01ffc9a7",
        "symbol()": "95d89b41",
        "tokenURI(uint256)": "c87b56dd",
        "transferFrom(address,address,uint256)": "23b872dd",
        "transferOwnership(address)": "f2fde38b"
    },
    "id": 41
}